:02000000B32A21
:10000800FF00030E8301DA000A08DB008A0170088A
:10001800A1007108A0000408A200A8227008DC0052
:10002800DD012F280130D600D401D5014F28063034
:10003800560203182128D60A4F285608023A031DEB
:1000480027280330D6004F285608053A031D2E28C6
:100058000630D6004F2800305D06031D35282430B1
:100068005C060319162800305D06031D3D2847303D
:100078005C0603191B2800305D06031D4528503017
:100088005C060319212800305D06031D4D28413008
:100098005C06031928285608063A031D5B28D40A6B
:1000A8000319D50A5408A03E84005C088000210882
:1000B800F0002008F100220884005B088A005A0E2C
:0800C8008300FF0E7F0E09000A
:1000D000103083120313FD00FD0B6C280000080094
:0400E0000000080014
:1000E400083083120313FC002330FD00FD0B782835
:0600F400FC0B7828080057
:1000FA0083120317941B8328861184288615141BE0
:10010A008828061189280615941A8D2886108E28A3
:10011A008614141A922806109328061403135918E1
:10012A009828061699280612861670208612031732
:10013A009419A1288611A22886151419A628061131
:10014A00A72806159418AB288610AC28861414180C
:10015A00B0280610B128061403135918B628061633
:10016A00B7280612861670208612591CBE287220DD
:06017A00BF286820080008
:1001800083120313F801F9011030FC00710DF80D12
:10019000F90D7408F8027508031C750FF9020318AD
:1001A000D8287408F80775080318750FF9070310A5
:0A01B000F00DF10DFC0BC62808004D
:0E01BA008312031358088A00570882000800B9
:1001C80083120313EF0105306F020318F4286F0838
:1001D800031712078400203080000313EF0AE72872
:1001E8006F0803171207840080010313EF036F08D9
:1001F8000317120793000A30F400F5011008F00005
:100208001108F100C0207808F0007908F1003030BA
:10021800F007031713088400700880000A30F40000
:10022800F5011008F0001108F100C020700803174C
:1002380090007108910000307106031D25290030D7
:100248007006031D28292B290313EF03FB28080038
:10025800831603139818322900002C2983126F087B
:0402680099000800F1
:10026C008312031359106F08031794007D2059143F
:02027C00080078
:10027E0083120313E801660884000008E70067088C
:10028E00003A031954296708EF002C21E80A680880
:0C029E00660784000008E70046290800FD
:1002AA006729803083120313E6007A29C030E600FA
:1002BA007A299430E6007A29D430E6007A29803007
:1002CA00E6007A29831203136608013A03195629AC
:1002DA006608023A03195B296608033A03195E297C
:1002EA006608043A0319612964296703F00066085D
:1002FA00F0077008E60059147008031794007D206F
:0E030A0059106808031794007D20591408004C
:1003180083120313EB01EC016608ED006708EE0099
:1003280080306706F00080307002031D9D29003080
:1003380066020318AB290130EB000030EC006608B8
:10034800003CED006708031C013EEE01EE026D085B
:100358000317900003136E0803179100031368082E
:1003680003179200E420063083120313E9000030DB
:10037800EA006A08003C031DC3296908003C031809
:10038800DE2969086807F20001306902F0000030D0
:10039800031C013E6A02F100700868078400000827
:1003A800F00072088400700880000130E902031C24
:1003B800EA03BD2968088400203080006B086C04BB
:1003C8000319FC29E901EA016908680784000008A3
:1003D800203A031DF329E90A0319EA0AE82901303A
:1003E800E902031CEA036908680784002D308000CD
:0203F8000800FB
:1003FA000F2A803083120313E600222AC030E60057
:10040A00222A9430E600222AD430E600222A8030BA
:10041A00E600222A831203136608013A0319FE2909
:10042A006608023A0319032A6608033A0319062AD8
:10043A006608043A0319092A0C2A6703F0006608B9
:10044A00F0077008E6007008031794007D20591021
:10045A00E901690868078400000803193C2A690849
:10046A00680784000008EF003621E90A2E2A591489
:02047A00080078
:10047C0083160313981690308312980083168717EF
:10048C00071383128C1E4D2A1A08F000472A080005
:10049C008316031386120612061086100611861197
:1004AC00831286120612861106118610061072200F
:1004BC007220722086140614861670208612722002
:1004CC008616702086127220861670208612722074
:1004DC0006108616702086127220861670208612E0
:1004EC0086108615861670208612722086110614C8
:1004FC0086167020861206108616702086127220C0
:10050C0086167020861206148616702086127220AB
:10051C00061086167020861286150615861406148B
:0C052C00861670208612722059140800F8
:10053800DD208A110A128000840AD70A0319D80A12
:08054800F003031D9C2A0800CA
:10055000831203131A08F100981CB02A18121816F7
:060560007108F000080024
:100566000C244E22C0308B00243083168C000730BA
:10057600831290008F018E0108101930831699009E
:1005860018153E220C30031794007D200230FB0024
:100596008630FC009930FD00FD0BCF2AFC0BCF2ADC
:1005A600FB0BCF2A023083168800FC3083128800AA
:1005B6000812081183168701831207160B30FB00F9
:1005C6002630FC005D30FD00FD0BE72AFC0BE72A18
:1005D600FB0BE72A00000000FF30831687000B3074
:1005E600FB002630FC005D30FD00FD0BF82AFC0BFD
:1005F600F82AFB0BF82A0000000001308312E600FF
:100606000130E70083162E088312E80055210F30CB
:10061600E500173065020318182B6508A03E840014
:100626000008EF003621E50A0C2B0230E600013007
:10063600E70083163A088312E80055211B30E500CF
:100646002430650203182F2B6508A03E840000089D
:10065600EF003621E50A232B0F08F100F0010E0802
:10066600F0040030F1047008A3007108A4007008BB
:10067600E6007108E7005E30E8008C210230E600F3
:100686000130E7005E30E800FD21871A4B2B081485
:100696008818D02B8818502B4D2B0B30FB0026309A
:1006A600FC005D30FD00FD0B562BFC0B562BFB0BA7
:1006B600562B000000003130E6003F210D30EF00E0
:1006C6002C210230FB008630FC009930FD00FD0B2A
:1006D6006A2BFC0B6A2BFB0B6A2B3B30E6003F2197
:1006E6000230FB008630FC009930FD00FD0B792BB3
:1006F600FC0B792BFB0B792B2B30E6003F210E30C0
:10070600E500173065020318902B6508A03E8400AB
:100716000008EF002C21E50A842B0D30EF002C2178
:100726002530E6003F210230FB008630FC00993080
:10073600FD00FD0B9C2BFC0B9C2BFB0B9C2B1A3002
:10074600E500243065020318B02B6508A03E84003E
:100756000008EF002C21E50AA42B0D30EF002C2118
:100766000230FB008630FC009930FD00FD0BB92BF2
:10077600FC0BB92BFB0BB92B1A30EF002C210630E2
:10078600FB001330FC00AD30FD00FD0BC82BFC0B4D
:0E079600C82BFB0BC82B00000000002BD12B42
:1008180023308400343083120313F000D730D7001C
:080828000330D8009C220800F7
:0407AE0000340034DF
:0C07B2004C346F346E3467343A34003439
:0C07BE004C346134743475343A34003427
:1007CA00413454342B3443344D34473446343D3465
:0407DA003134003482
:1007DE00413454342B3443344D34473453343D3444
:1007EE0022343034313430343034373430343134E0
:1007FE00373435343934353422340D340034003442
:02080E000034B4
:04081000003400347C
:020814000034AE
:02400E004A2F37
:00000001FF
